{
  "_format": "hh-sol-artifact-1",
  "contractName": "System_wallet",
  "sourceName": "contracts/system/Wallet.sol",
  "abi": [
    {
      "inputs": [
        {
          "internalType": "address",
          "name": "target",
          "type": "address"
        }
      ],
      "name": "AddressEmptyCode",
      "type": "error"
    },
    {
      "inputs": [
        {
          "internalType": "address",
          "name": "implementation",
          "type": "address"
        }
      ],
      "name": "ERC1967InvalidImplementation",
      "type": "error"
    },
    {
      "inputs": [],
      "name": "ERC1967NonPayable",
      "type": "error"
    },
    {
      "inputs": [],
      "name": "FailedCall",
      "type": "error"
    },
    {
      "inputs": [],
      "name": "InvalidInitialization",
      "type": "error"
    },
    {
      "inputs": [],
      "name": "NotInitializing",
      "type": "error"
    },
    {
      "inputs": [],
      "name": "ReentrancyGuardReentrantCall",
      "type": "error"
    },
    {
      "inputs": [],
      "name": "UUPSUnauthorizedCallContext",
      "type": "error"
    },
    {
      "inputs": [
        {
          "internalType": "bytes32",
          "name": "slot",
          "type": "bytes32"
        }
      ],
      "name": "UUPSUnsupportedProxiableUUID",
      "type": "error"
    },
    {
      "anonymous": false,
      "inputs": [
        {
          "indexed": false,
          "internalType": "uint64",
          "name": "version",
          "type": "uint64"
        }
      ],
      "name": "Initialized",
      "type": "event"
    },
    {
      "anonymous": false,
      "inputs": [
        {
          "indexed": true,
          "internalType": "address",
          "name": "implementation",
          "type": "address"
        }
      ],
      "name": "Upgraded",
      "type": "event"
    },
    {
      "anonymous": false,
      "inputs": [
        {
          "indexed": true,
          "internalType": "address",
          "name": "caller",
          "type": "address"
        }
      ],
      "name": "contract_balances_checked",
      "type": "event"
    },
    {
      "anonymous": false,
      "inputs": [
        {
          "indexed": true,
          "internalType": "address",
          "name": "from",
          "type": "address"
        },
        {
          "indexed": true,
          "internalType": "uint256",
          "name": "amount",
          "type": "uint256"
        }
      ],
      "name": "contract_received_fund",
      "type": "event"
    },
    {
      "anonymous": false,
      "inputs": [
        {
          "indexed": true,
          "internalType": "address",
          "name": "to",
          "type": "address"
        },
        {
          "indexed": true,
          "internalType": "uint256",
          "name": "amount",
          "type": "uint256"
        }
      ],
      "name": "contract_transfered_fund",
      "type": "event"
    },
    {
      "stateMutability": "payable",
      "type": "fallback"
    },
    {
      "inputs": [],
      "name": "UPGRADE_INTERFACE_VERSION",
      "outputs": [
        {
          "internalType": "string",
          "name": "",
          "type": "string"
        }
      ],
      "stateMutability": "view",
      "type": "function"
    },
    {
      "inputs": [],
      "name": "employeeAssignment",
      "outputs": [
        {
          "internalType": "contract IEmployeeAssignment",
          "name": "",
          "type": "address"
        }
      ],
      "stateMutability": "view",
      "type": "function"
    },
    {
      "inputs": [
        {
          "internalType": "address",
          "name": "_employeeAssignment",
          "type": "address"
        }
      ],
      "name": "initialize",
      "outputs": [],
      "stateMutability": "nonpayable",
      "type": "function"
    },
    {
      "inputs": [],
      "name": "proxiableUUID",
      "outputs": [
        {
          "internalType": "bytes32",
          "name": "",
          "type": "bytes32"
        }
      ],
      "stateMutability": "view",
      "type": "function"
    },
    {
      "inputs": [],
      "name": "seeBalances",
      "outputs": [
        {
          "internalType": "uint256",
          "name": "",
          "type": "uint256"
        }
      ],
      "stateMutability": "nonpayable",
      "type": "function"
    },
    {
      "inputs": [
        {
          "internalType": "address payable",
          "name": "_to",
          "type": "address"
        },
        {
          "internalType": "uint256",
          "name": "_amount",
          "type": "uint256"
        }
      ],
      "name": "transfer",
      "outputs": [],
      "stateMutability": "nonpayable",
      "type": "function"
    },
    {
      "inputs": [
        {
          "internalType": "address",
          "name": "newImplementation",
          "type": "address"
        },
        {
          "internalType": "bytes",
          "name": "data",
          "type": "bytes"
        }
      ],
      "name": "upgradeToAndCall",
      "outputs": [],
      "stateMutability": "payable",
      "type": "function"
    },
    {
      "stateMutability": "payable",
      "type": "receive"
    }
  ],
  "bytecode": "0x60a0806040523460295730608052610b5c908161002f82396080518181816105e601526106b90152f35b600080fdfe6080806040526004361015610044575b50361561002d573433600080516020610aa7833981519152600080a3005b3433600080516020610aa7833981519152600080a3005b60003560e01c90816334533fbb146108b6575080634f1ef2861461063d57806352d1902d146105d35780638216c37e146104c5578063a9059cbb1461029b578063ad3cb1cc1461021f5763c4d66de81461009e573861000f565b3461021a57602036600319011261021a576100b76108da565b600080516020610b0783398151915254604081901c60ff161591906001600160401b03811680159081610212575b6001149081610208575b1590816101ff575b506101ee576001600160401b03198116600117600080516020610b0783398151915255826101c5575b50610129610a17565b610131610a17565b610139610a17565b6001600080516020610ae783398151915255600080546001600160a01b0319166001600160a01b039290921691909117905561017157005b60ff60401b19600080516020610b078339815191525416600080516020610b07833981519152557fc7f505b2f371ae2175ee4913f4499e1f2633a7b5936321eed1cdaeb6115181d2602060405160018152a1005b6001600160481b0319166001600160401b0117600080516020610b078339815191525538610120565b63f92ee8a960e01b60005260046000fd5b905015386100f7565b303b1591506100ef565b8491506100e5565b600080fd5b3461021a57600036600319011261021a57604080519061023f81836108f0565b60058252640352e302e360dc1b6020830152805180926020825280519081602084015260005b8281106102845750506000828201840152601f01601f19168101030190f35b602082820181015187830187015286945001610265565b3461021a57604036600319011261021a576004356001600160a01b0381169081900361021a57600054604051638da5cb5b60e01b81526024359291602090829060049082906001600160a01b03165afa80156104b95761030e9160009161048a575b506001600160a01b031633146109af565b6002600080516020610ae78339815191525414610479576002600080516020610ae783398151915255610342331515610944565b8015610424578147106000146103905760405162461bcd60e51b8152602060048201526016602482015275696e737566696369656e742062616c616e636573202160501b6044820152606490fd5b600080808085855af16103a16109e7565b50156103e0577fae538a1b9462f6288da1c1912c6d7e22fc226dff723d1cc897cfc7727255ea70600080a36001600080516020610ae783398151915255005b606460405162461bcd60e51b815260206004820152602060248201527f7472616e7366657220746f206c6f616e20636f6e7472616374206661696c65646044820152fd5b60405162461bcd60e51b815260206004820152602760248201527f416363657373436f6e74726f6c3a207a65726f2061646472657373206e6f7420604482015266185b1b1bddd95960ca1b6064820152608490fd5b633ee5aeb560e01b60005260046000fd5b6104ac915060203d6020116104b2575b6104a481836108f0565b810190610990565b846102fd565b503d61049a565b6040513d6000823e3d90fd5b3461021a57600036600319011261021a57600054604051633f784de560e11b815233600482015290602090829060249082906001600160a01b03165afa9081156104b957600091610591575b501561055d57610522331515610944565b6020670de0b6b3a7640000470460405190337ff5afddf1b6f53f85e154c628a39cdd5cea6f2c35e6446999fb69c99ffd3e407e600080a28152f35b60405162461bcd60e51b815260206004820152600c60248201526b4e6f7420656d706c6f79656560a01b6044820152606490fd5b6020813d6020116105cb575b816105aa602093836108f0565b810103126105c757519081151582036105c4575081610511565b80fd5b5080fd5b3d915061059d565b3461021a57600036600319011261021a577f00000000000000000000000000000000000000000000000000000000000000006001600160a01b0316300361062c576020604051600080516020610ac78339815191528152f35b63703e46dd60e11b60005260046000fd5b604036600319011261021a576106516108da565b602435906001600160401b03821161021a573660238301121561021a5781600401359061067d82610929565b9161068b60405193846108f0565b8083526020830193366024838301011161021a57816000926024602093018737840101526001600160a01b037f000000000000000000000000000000000000000000000000000000000000000016308114908115610893575b5061062c57600054604051638da5cb5b60e01b815290602090829060049082906001600160a01b03165afa80156104b9576107319160009161087457506001600160a01b031633146109af565b6040516352d1902d60e01b81526001600160a01b0382169390602081600481885afa60009181610840575b506107765784634c9c8ce360e01b60005260045260246000fd5b80600080516020610ac783398151915286920361082c5750823b1561081857600080516020610ac783398151915280546001600160a01b031916821790557fbc7cd75a20ee27fd9adebab32041f755214dbc6bffa90cc0225b39da2e5c2d3b600080a28251156107fd57600080916107fb945190845af46107f56109e7565b91610a45565b005b5050503461080757005b63b398979f60e01b60005260046000fd5b634c9c8ce360e01b60005260045260246000fd5b632a87526960e21b60005260045260246000fd5b9091506020813d60201161086c575b8161085c602093836108f0565b8101031261021a5751908661075c565b3d915061084f565b61088d915060203d6020116104b2576104a481836108f0565b856102fd565b600080516020610ac7833981519152546001600160a01b031614159050846106e4565b3461021a57600036600319011261021a576000546001600160a01b03168152602090f35b600435906001600160a01b038216820361021a57565b601f909101601f19168101906001600160401b0382119082101761091357604052565b634e487b7160e01b600052604160045260246000fd5b6001600160401b03811161091357601f01601f191660200190565b1561094b57565b60405162461bcd60e51b815260206004820152601d60248201527f63616c6c65722069732063616e74206265207a65726f206164647220210000006044820152606490fd5b9081602091031261021a57516001600160a01b038116810361021a5790565b156109b657565b60405162461bcd60e51b81526020600482015260096024820152682737ba1037bbb732b960b91b6044820152606490fd5b3d15610a12573d906109f882610929565b91610a0660405193846108f0565b82523d6000602084013e565b606090565b60ff600080516020610b078339815191525460401c1615610a3457565b631afcd79f60e31b60005260046000fd5b90610a6b5750805115610a5a57602081519101fd5b63d6bda27560e01b60005260046000fd5b81511580610a9d575b610a7c575090565b639996b31560e01b60009081526001600160a01b0391909116600452602490fd5b50803b15610a7456fe9a910e4510aced4a032c4797a04f4c9b32316bcde4dfc60c7c73d88f936428c8360894a13ba1a3210667c828492db98dca3e2076cc3735a920a3ca505d382bbc9b779b17422d0df92223018b32b4d1fa46e071723d6817e2486d003becc55f00f0c57e16840df040f15088dc2f81fe391c3923bec73e23a9662efc9c229c6a00a264697066735822122062a4d26b477d1e062edb39c07b8d75678b3ca0a34f0a25a2113ea2fd3f7fac1f64736f6c634300081c0033",
  "linkReferences": {},
  "deployedLinkReferences": {}
}