{
  "_format": "hh-sol-artifact-1",
  "contractName": "TrustlessTeamProtocol",
  "sourceName": "contracts/User/TrustlessTeamProtocol.sol",
  "abi": [
    {
      "inputs": [
        {
          "internalType": "address",
          "name": "target",
          "type": "address"
        }
      ],
      "name": "AddressEmptyCode",
      "type": "error"
    },
    {
      "inputs": [],
      "name": "AlreadyRequestedJoin",
      "type": "error"
    },
    {
      "inputs": [],
      "name": "AlredyRegistered",
      "type": "error"
    },
    {
      "inputs": [],
      "name": "CancelAlreadyRequested",
      "type": "error"
    },
    {
      "inputs": [],
      "name": "CancelOnlyWhenMemberAssigned",
      "type": "error"
    },
    {
      "inputs": [
        {
          "internalType": "address",
          "name": "implementation",
          "type": "address"
        }
      ],
      "name": "ERC1967InvalidImplementation",
      "type": "error"
    },
    {
      "inputs": [],
      "name": "ERC1967NonPayable",
      "type": "error"
    },
    {
      "inputs": [],
      "name": "EnforcedPause",
      "type": "error"
    },
    {
      "inputs": [],
      "name": "ExpectedPause",
      "type": "error"
    },
    {
      "inputs": [],
      "name": "FailedCall",
      "type": "error"
    },
    {
      "inputs": [],
      "name": "InsufficientStake",
      "type": "error"
    },
    {
      "inputs": [],
      "name": "InvalidAge",
      "type": "error"
    },
    {
      "inputs": [],
      "name": "InvalidDeadline",
      "type": "error"
    },
    {
      "inputs": [],
      "name": "InvalidGithubURL",
      "type": "error"
    },
    {
      "inputs": [],
      "name": "InvalidInitialization",
      "type": "error"
    },
    {
      "inputs": [],
      "name": "InvalidName",
      "type": "error"
    },
    {
      "inputs": [],
      "name": "InvalidNote",
      "type": "error"
    },
    {
      "inputs": [],
      "name": "InvalidReason",
      "type": "error"
    },
    {
      "inputs": [],
      "name": "InvalidRewardAmount",
      "type": "error"
    },
    {
      "inputs": [],
      "name": "InvalidTitle",
      "type": "error"
    },
    {
      "inputs": [],
      "name": "NoActiveCancelRequest",
      "type": "error"
    },
    {
      "inputs": [],
      "name": "NotCounterparty",
      "type": "error"
    },
    {
      "inputs": [],
      "name": "NotInitializing",
      "type": "error"
    },
    {
      "inputs": [],
      "name": "NotRegistered",
      "type": "error"
    },
    {
      "inputs": [],
      "name": "NotTaskCreator",
      "type": "error"
    },
    {
      "inputs": [],
      "name": "NotTaskMember",
      "type": "error"
    },
    {
      "inputs": [],
      "name": "ReentrancyGuardReentrantCall",
      "type": "error"
    },
    {
      "inputs": [],
      "name": "StakeHitLimit",
      "type": "error"
    },
    {
      "inputs": [],
      "name": "TaskDoesNotExist",
      "type": "error"
    },
    {
      "inputs": [],
      "name": "TaskNotOpen",
      "type": "error"
    },
    {
      "inputs": [],
      "name": "TaskNotSubmittedYet",
      "type": "error"
    },
    {
      "inputs": [],
      "name": "TooManyRevisions",
      "type": "error"
    },
    {
      "inputs": [],
      "name": "UUPSUnauthorizedCallContext",
      "type": "error"
    },
    {
      "inputs": [
        {
          "internalType": "bytes32",
          "name": "slot",
          "type": "bytes32"
        }
      ],
      "name": "UUPSUnsupportedProxiableUUID",
      "type": "error"
    },
    {
      "anonymous": false,
      "inputs": [
        {
          "indexed": false,
          "internalType": "uint256",
          "name": "newK",
          "type": "uint256"
        }
      ],
      "name": "AlgoConstantChanged",
      "type": "event"
    },
    {
      "anonymous": false,
      "inputs": [
        {
          "indexed": true,
          "internalType": "uint256",
          "name": "taskId",
          "type": "uint256"
        },
        {
          "indexed": true,
          "internalType": "address",
          "name": "requester",
          "type": "address"
        },
        {
          "indexed": false,
          "internalType": "string",
          "name": "reason",
          "type": "string"
        },
        {
          "indexed": false,
          "internalType": "uint256",
          "name": "cooldown",
          "type": "uint256"
        }
      ],
      "name": "CancelRequestedEvent",
      "type": "event"
    },
    {
      "anonymous": false,
      "inputs": [
        {
          "indexed": true,
          "internalType": "uint256",
          "name": "taskId",
          "type": "uint256"
        },
        {
          "indexed": false,
          "internalType": "bool",
          "name": "approved",
          "type": "bool"
        }
      ],
      "name": "CancelResponded",
      "type": "event"
    },
    {
      "anonymous": false,
      "inputs": [
        {
          "indexed": true,
          "internalType": "address",
          "name": "caller",
          "type": "address"
        }
      ],
      "name": "ContractPaused",
      "type": "event"
    },
    {
      "anonymous": false,
      "inputs": [
        {
          "indexed": true,
          "internalType": "address",
          "name": "caller",
          "type": "address"
        }
      ],
      "name": "ContractUnpaused",
      "type": "event"
    },
    {
      "anonymous": false,
      "inputs": [
        {
          "indexed": false,
          "internalType": "uint64",
          "name": "newCooldown",
          "type": "uint64"
        }
      ],
      "name": "CooldownChanged",
      "type": "event"
    },
    {
      "anonymous": false,
      "inputs": [
        {
          "indexed": true,
          "internalType": "uint256",
          "name": "taskId",
          "type": "uint256"
        }
      ],
      "name": "DeadlineTriggered",
      "type": "event"
    },
    {
      "anonymous": false,
      "inputs": [
        {
          "indexed": false,
          "internalType": "uint256",
          "name": "amount",
          "type": "uint256"
        }
      ],
      "name": "FeeWithdrawnToSystemWallet",
      "type": "event"
    },
    {
      "anonymous": false,
      "inputs": [
        {
          "indexed": false,
          "internalType": "uint64",
          "name": "version",
          "type": "uint64"
        }
      ],
      "name": "Initialized",
      "type": "event"
    },
    {
      "anonymous": false,
      "inputs": [
        {
          "indexed": true,
          "internalType": "uint256",
          "name": "taskId",
          "type": "uint256"
        },
        {
          "indexed": true,
          "internalType": "address",
          "name": "applicant",
          "type": "address"
        }
      ],
      "name": "JoinApproved",
      "type": "event"
    },
    {
      "anonymous": false,
      "inputs": [
        {
          "indexed": true,
          "internalType": "uint256",
          "name": "taskId",
          "type": "uint256"
        },
        {
          "indexed": true,
          "internalType": "address",
          "name": "applicant",
          "type": "address"
        }
      ],
      "name": "JoinRejected",
      "type": "event"
    },
    {
      "anonymous": false,
      "inputs": [
        {
          "indexed": true,
          "internalType": "uint256",
          "name": "taskId",
          "type": "uint256"
        },
        {
          "indexed": true,
          "internalType": "address",
          "name": "applicant",
          "type": "address"
        },
        {
          "indexed": false,
          "internalType": "uint256",
          "name": "stakeAmount",
          "type": "uint256"
        }
      ],
      "name": "JoinRequested",
      "type": "event"
    },
    {
      "anonymous": false,
      "inputs": [
        {
          "indexed": false,
          "internalType": "uint32",
          "name": "newMaxStake",
          "type": "uint32"
        }
      ],
      "name": "MaxStakeChanged",
      "type": "event"
    },
    {
      "anonymous": false,
      "inputs": [
        {
          "indexed": false,
          "internalType": "address",
          "name": "account",
          "type": "address"
        }
      ],
      "name": "Paused",
      "type": "event"
    },
    {
      "anonymous": false,
      "inputs": [
        {
          "indexed": true,
          "internalType": "uint256",
          "name": "taskId",
          "type": "uint256"
        }
      ],
      "name": "RegistrationClosed",
      "type": "event"
    },
    {
      "anonymous": false,
      "inputs": [
        {
          "indexed": true,
          "internalType": "uint256",
          "name": "taskId",
          "type": "uint256"
        }
      ],
      "name": "RegistrationOpened",
      "type": "event"
    },
    {
      "anonymous": false,
      "inputs": [
        {
          "indexed": true,
          "internalType": "uint256",
          "name": "taskId",
          "type": "uint256"
        },
        {
          "indexed": false,
          "internalType": "uint8",
          "name": "revisionCount",
          "type": "uint8"
        },
        {
          "indexed": false,
          "internalType": "uint256",
          "name": "newDeadline",
          "type": "uint256"
        }
      ],
      "name": "RevisionRequested",
      "type": "event"
    },
    {
      "anonymous": false,
      "inputs": [
        {
          "indexed": false,
          "internalType": "address",
          "name": "newWallet",
          "type": "address"
        }
      ],
      "name": "SystemWalletChanged",
      "type": "event"
    },
    {
      "anonymous": false,
      "inputs": [
        {
          "indexed": true,
          "internalType": "uint256",
          "name": "taskId",
          "type": "uint256"
        }
      ],
      "name": "TaskApproved",
      "type": "event"
    },
    {
      "anonymous": false,
      "inputs": [
        {
          "indexed": true,
          "internalType": "uint256",
          "name": "taskId",
          "type": "uint256"
        },
        {
          "indexed": true,
          "internalType": "address",
          "name": "initiator",
          "type": "address"
        }
      ],
      "name": "TaskCancelledByMe",
      "type": "event"
    },
    {
      "anonymous": false,
      "inputs": [
        {
          "indexed": false,
          "internalType": "string",
          "name": "title",
          "type": "string"
        },
        {
          "indexed": true,
          "internalType": "uint256",
          "name": "taskId",
          "type": "uint256"
        },
        {
          "indexed": true,
          "internalType": "address",
          "name": "creator",
          "type": "address"
        },
        {
          "indexed": false,
          "internalType": "uint256",
          "name": "reward",
          "type": "uint256"
        },
        {
          "indexed": false,
          "internalType": "uint256",
          "name": "creatorStake",
          "type": "uint256"
        }
      ],
      "name": "TaskCreated",
      "type": "event"
    },
    {
      "anonymous": false,
      "inputs": [
        {
          "indexed": true,
          "internalType": "uint256",
          "name": "taskId",
          "type": "uint256"
        },
        {
          "indexed": true,
          "internalType": "address",
          "name": "member",
          "type": "address"
        }
      ],
      "name": "TaskReSubmitted",
      "type": "event"
    },
    {
      "anonymous": false,
      "inputs": [
        {
          "indexed": true,
          "internalType": "uint256",
          "name": "taskId",
          "type": "uint256"
        },
        {
          "indexed": true,
          "internalType": "address",
          "name": "member",
          "type": "address"
        },
        {
          "indexed": false,
          "internalType": "string",
          "name": "githubURL",
          "type": "string"
        }
      ],
      "name": "TaskSubmitted",
      "type": "event"
    },
    {
      "anonymous": false,
      "inputs": [
        {
          "indexed": false,
          "internalType": "address",
          "name": "account",
          "type": "address"
        }
      ],
      "name": "Unpaused",
      "type": "event"
    },
    {
      "anonymous": false,
      "inputs": [
        {
          "indexed": true,
          "internalType": "address",
          "name": "implementation",
          "type": "address"
        }
      ],
      "name": "Upgraded",
      "type": "event"
    },
    {
      "anonymous": false,
      "inputs": [
        {
          "indexed": true,
          "internalType": "address",
          "name": "user",
          "type": "address"
        },
        {
          "indexed": false,
          "internalType": "string",
          "name": "name",
          "type": "string"
        },
        {
          "indexed": false,
          "internalType": "uint8",
          "name": "age",
          "type": "uint8"
        }
      ],
      "name": "UserRegistered",
      "type": "event"
    },
    {
      "anonymous": false,
      "inputs": [
        {
          "indexed": true,
          "internalType": "address",
          "name": "user",
          "type": "address"
        },
        {
          "indexed": false,
          "internalType": "string",
          "name": "name",
          "type": "string"
        },
        {
          "indexed": false,
          "internalType": "uint8",
          "name": "age",
          "type": "uint8"
        }
      ],
      "name": "UserUnregistered",
      "type": "event"
    },
    {
      "anonymous": false,
      "inputs": [
        {
          "indexed": true,
          "internalType": "address",
          "name": "user",
          "type": "address"
        },
        {
          "indexed": false,
          "internalType": "uint256",
          "name": "amount",
          "type": "uint256"
        }
      ],
      "name": "Withdrawal",
      "type": "event"
    },
    {
      "stateMutability": "payable",
      "type": "fallback"
    },
    {
      "inputs": [],
      "name": "StateVars",
      "outputs": [
        {
          "internalType": "uint64",
          "name": "cooldownInHour",
          "type": "uint64"
        },
        {
          "internalType": "uint32",
          "name": "minRevisionTimeInHour",
          "type": "uint32"
        },
        {
          "internalType": "uint32",
          "name": "NegPenalty",
          "type": "uint32"
        },
        {
          "internalType": "uint32",
          "name": "maxReward",
          "type": "uint32"
        },
        {
          "internalType": "uint32",
          "name": "feePercentage",
          "type": "uint32"
        },
        {
          "internalType": "uint32",
          "name": "maxStake",
          "type": "uint32"
        },
        {
          "internalType": "uint32",
          "name": "maxRevision",
          "type": "uint32"
        }
      ],
      "stateMutability": "view",
      "type": "function"
    },
    {
      "inputs": [
        {
          "internalType": "uint256",
          "name": "",
          "type": "uint256"
        }
      ],
      "name": "Tasks",
      "outputs": [
        {
          "internalType": "uint256",
          "name": "taskId",
          "type": "uint256"
        },
        {
          "internalType": "enum TrustlessTeamProtocol.TaskStatus",
          "name": "status",
          "type": "uint8"
        },
        {
          "internalType": "address",
          "name": "creator",
          "type": "address"
        },
        {
          "internalType": "address",
          "name": "member",
          "type": "address"
        },
        {
          "internalType": "string",
          "name": "title",
          "type": "string"
        },
        {
          "internalType": "string",
          "name": "githubURL",
          "type": "string"
        },
        {
          "internalType": "uint256",
          "name": "reward",
          "type": "uint256"
        },
        {
          "internalType": "uint32",
          "name": "deadlineHours",
          "type": "uint32"
        },
        {
          "internalType": "uint256",
          "name": "deadlineAt",
          "type": "uint256"
        },
        {
          "internalType": "uint256",
          "name": "createdAt",
          "type": "uint256"
        },
        {
          "internalType": "uint256",
          "name": "creatorStake",
          "type": "uint256"
        },
        {
          "internalType": "uint256",
          "name": "memberStake",
          "type": "uint256"
        },
        {
          "internalType": "uint8",
          "name": "maxRevision",
          "type": "uint8"
        },
        {
          "internalType": "bool",
          "name": "isMemberStakeLocked",
          "type": "bool"
        },
        {
          "internalType": "bool",
          "name": "isCreatorStakeLocked",
          "type": "bool"
        },
        {
          "internalType": "bool",
          "name": "isRewardClaimed",
          "type": "bool"
        },
        {
          "internalType": "bool",
          "name": "exists",
          "type": "bool"
        }
      ],
      "stateMutability": "view",
      "type": "function"
    },
    {
      "inputs": [],
      "name": "UPGRADE_INTERFACE_VERSION",
      "outputs": [
        {
          "internalType": "string",
          "name": "",
          "type": "string"
        }
      ],
      "stateMutability": "view",
      "type": "function"
    },
    {
      "inputs": [],
      "name": "Unregister",
      "outputs": [
        {
          "internalType": "string",
          "name": "",
          "type": "string"
        }
      ],
      "stateMutability": "nonpayable",
      "type": "function"
    },
    {
      "inputs": [],
      "name": "algoConstant",
      "outputs": [
        {
          "internalType": "uint256",
          "name": "",
          "type": "uint256"
        }
      ],
      "stateMutability": "view",
      "type": "function"
    },
    {
      "inputs": [
        {
          "internalType": "uint256",
          "name": "taskId",
          "type": "uint256"
        },
        {
          "internalType": "address",
          "name": "_applicant",
          "type": "address"
        }
      ],
      "name": "approveJoinRequest",
      "outputs": [],
      "stateMutability": "nonpayable",
      "type": "function"
    },
    {
      "inputs": [
        {
          "internalType": "uint256",
          "name": "taskId",
          "type": "uint256"
        }
      ],
      "name": "approveTask",
      "outputs": [],
      "stateMutability": "nonpayable",
      "type": "function"
    },
    {
      "inputs": [
        {
          "internalType": "uint256",
          "name": "taskId",
          "type": "uint256"
        }
      ],
      "name": "cancelByMe",
      "outputs": [],
      "stateMutability": "nonpayable",
      "type": "function"
    },
    {
      "inputs": [
        {
          "internalType": "address payable",
          "name": "_NewsystemWallet",
          "type": "address"
        }
      ],
      "name": "changeSystemwallet",
      "outputs": [],
      "stateMutability": "nonpayable",
      "type": "function"
    },
    {
      "inputs": [
        {
          "internalType": "uint256",
          "name": "taskId",
          "type": "uint256"
        }
      ],
      "name": "closeRegistration",
      "outputs": [],
      "stateMutability": "nonpayable",
      "type": "function"
    },
    {
      "inputs": [
        {
          "internalType": "string",
          "name": "Title",
          "type": "string"
        },
        {
          "internalType": "string",
          "name": "GithubURL",
          "type": "string"
        },
        {
          "internalType": "uint32",
          "name": "_DeadlineHours",
          "type": "uint32"
        },
        {
          "internalType": "uint8",
          "name": "maximumRevision",
          "type": "uint8"
        },
        {
          "internalType": "uint256",
          "name": "RewardEther",
          "type": "uint256"
        }
      ],
      "name": "createTask",
      "outputs": [],
      "stateMutability": "payable",
      "type": "function"
    },
    {
      "inputs": [],
      "name": "employeeAssignment",
      "outputs": [
        {
          "internalType": "contract IEmployeeAssignment",
          "name": "",
          "type": "address"
        }
      ],
      "stateMutability": "view",
      "type": "function"
    },
    {
      "inputs": [
        {
          "internalType": "address",
          "name": "creator",
          "type": "address"
        },
        {
          "internalType": "uint256",
          "name": "rewardWei",
          "type": "uint256"
        },
        {
          "internalType": "uint8",
          "name": "maxRevision",
          "type": "uint8"
        },
        {
          "internalType": "uint256",
          "name": "deadlineHours",
          "type": "uint256"
        }
      ],
      "name": "getCreatorRequiredStakeFor",
      "outputs": [
        {
          "internalType": "uint256",
          "name": "",
          "type": "uint256"
        }
      ],
      "stateMutability": "view",
      "type": "function"
    },
    {
      "inputs": [
        {
          "internalType": "uint256",
          "name": "taskId",
          "type": "uint256"
        }
      ],
      "name": "getJoinRequests",
      "outputs": [
        {
          "components": [
            {
              "internalType": "address",
              "name": "applicant",
              "type": "address"
            },
            {
              "internalType": "uint256",
              "name": "stakeAmount",
              "type": "uint256"
            },
            {
              "internalType": "enum TrustlessTeamProtocol.UserTask",
              "name": "status",
              "type": "uint8"
            },
            {
              "internalType": "bool",
              "name": "isPending",
              "type": "bool"
            },
            {
              "internalType": "bool",
              "name": "hasWithdrawn",
              "type": "bool"
            }
          ],
          "internalType": "struct TrustlessTeamProtocol.JoinRequest[]",
          "name": "",
          "type": "tuple[]"
        }
      ],
      "stateMutability": "view",
      "type": "function"
    },
    {
      "inputs": [
        {
          "internalType": "uint256",
          "name": "taskId",
          "type": "uint256"
        }
      ],
      "name": "getMemberRequiredStake",
      "outputs": [
        {
          "internalType": "uint256",
          "name": "",
          "type": "uint256"
        }
      ],
      "stateMutability": "view",
      "type": "function"
    },
    {
      "inputs": [
        {
          "internalType": "uint256",
          "name": "taskId",
          "type": "uint256"
        },
        {
          "internalType": "address",
          "name": "applicant",
          "type": "address"
        }
      ],
      "name": "getMemberRequiredStakeFor",
      "outputs": [
        {
          "internalType": "uint256",
          "name": "",
          "type": "uint256"
        }
      ],
      "stateMutability": "view",
      "type": "function"
    },
    {
      "inputs": [],
      "name": "getMyData",
      "outputs": [
        {
          "components": [
            {
              "internalType": "uint256",
              "name": "totalTasksCreated",
              "type": "uint256"
            },
            {
              "internalType": "uint256",
              "name": "totalTasksCompleted",
              "type": "uint256"
            },
            {
              "internalType": "uint256",
              "name": "totalTasksFailed",
              "type": "uint256"
            },
            {
              "internalType": "uint32",
              "name": "reputation",
              "type": "uint32"
            },
            {
              "internalType": "uint8",
              "name": "age",
              "type": "uint8"
            },
            {
              "internalType": "bool",
              "name": "isRegistered",
              "type": "bool"
            },
            {
              "internalType": "string",
              "name": "name",
              "type": "string"
            }
          ],
          "internalType": "struct TrustlessTeamProtocol.User",
          "name": "",
          "type": "tuple"
        }
      ],
      "stateMutability": "view",
      "type": "function"
    },
    {
      "inputs": [
        {
          "internalType": "uint256",
          "name": "taskId",
          "type": "uint256"
        }
      ],
      "name": "getTaskSubmit",
      "outputs": [
        {
          "components": [
            {
              "internalType": "string",
              "name": "githubURL",
              "type": "string"
            },
            {
              "internalType": "address",
              "name": "sender",
              "type": "address"
            },
            {
              "internalType": "string",
              "name": "note",
              "type": "string"
            },
            {
              "internalType": "enum TrustlessTeamProtocol.SubmitStatus",
              "name": "status",
              "type": "uint8"
            },
            {
              "internalType": "uint8",
              "name": "revisionTime",
              "type": "uint8"
            },
            {
              "internalType": "uint256",
              "name": "newDeadline",
              "type": "uint256"
            }
          ],
          "internalType": "struct TrustlessTeamProtocol.TaskSubmit",
          "name": "",
          "type": "tuple"
        }
      ],
      "stateMutability": "view",
      "type": "function"
    },
    {
      "inputs": [],
      "name": "getWithdrawableAmount",
      "outputs": [
        {
          "internalType": "uint256",
          "name": "",
          "type": "uint256"
        }
      ],
      "stateMutability": "view",
      "type": "function"
    },
    {
      "inputs": [
        {
          "internalType": "address",
          "name": "_employeeAssignment",
          "type": "address"
        },
        {
          "internalType": "address payable",
          "name": "_systemWallet",
          "type": "address"
        },
        {
          "internalType": "uint64",
          "name": "_cooldownInHour",
          "type": "uint64"
        },
        {
          "internalType": "uint32",
          "name": "_maxStake",
          "type": "uint32"
        },
        {
          "internalType": "uint32",
          "name": "_NegPenalty",
          "type": "uint32"
        },
        {
          "internalType": "uint32",
          "name": "_maxReward",
          "type": "uint32"
        },
        {
          "internalType": "uint32",
          "name": "_minRevisionTimeInHour",
          "type": "uint32"
        },
        {
          "internalType": "uint32",
          "name": "_feePercentage",
          "type": "uint32"
        },
        {
          "internalType": "uint32",
          "name": "_maxRevision",
          "type": "uint32"
        },
        {
          "internalType": "uint32",
          "name": "_CancelByMe",
          "type": "uint32"
        },
        {
          "internalType": "uint32",
          "name": "_requestCancel",
          "type": "uint32"
        },
        {
          "internalType": "uint32",
          "name": "_respondCancel",
          "type": "uint32"
        },
        {
          "internalType": "uint32",
          "name": "_revision",
          "type": "uint32"
        },
        {
          "internalType": "uint32",
          "name": "_taskAcceptCreator",
          "type": "uint32"
        },
        {
          "internalType": "uint32",
          "name": "_taskAcceptMember",
          "type": "uint32"
        },
        {
          "internalType": "uint32",
          "name": "_deadlineHitCreator",
          "type": "uint32"
        },
        {
          "internalType": "uint32",
          "name": "_deadlineHitMember",
          "type": "uint32"
        }
      ],
      "name": "initialize",
      "outputs": [],
      "stateMutability": "nonpayable",
      "type": "function"
    },
    {
      "inputs": [
        {
          "internalType": "uint256",
          "name": "",
          "type": "uint256"
        },
        {
          "internalType": "uint256",
          "name": "",
          "type": "uint256"
        }
      ],
      "name": "joinRequests",
      "outputs": [
        {
          "internalType": "address",
          "name": "applicant",
          "type": "address"
        },
        {
          "internalType": "uint256",
          "name": "stakeAmount",
          "type": "uint256"
        },
        {
          "internalType": "enum TrustlessTeamProtocol.UserTask",
          "name": "status",
          "type": "uint8"
        },
        {
          "internalType": "bool",
          "name": "isPending",
          "type": "bool"
        },
        {
          "internalType": "bool",
          "name": "hasWithdrawn",
          "type": "bool"
        }
      ],
      "stateMutability": "view",
      "type": "function"
    },
    {
      "inputs": [
        {
          "internalType": "uint256",
          "name": "taskId",
          "type": "uint256"
        }
      ],
      "name": "openRegistration",
      "outputs": [],
      "stateMutability": "nonpayable",
      "type": "function"
    },
    {
      "inputs": [],
      "name": "pause",
      "outputs": [],
      "stateMutability": "nonpayable",
      "type": "function"
    },
    {
      "inputs": [],
      "name": "paused",
      "outputs": [
        {
          "internalType": "bool",
          "name": "",
          "type": "bool"
        }
      ],
      "stateMutability": "view",
      "type": "function"
    },
    {
      "inputs": [],
      "name": "proxiableUUID",
      "outputs": [
        {
          "internalType": "bytes32",
          "name": "",
          "type": "bytes32"
        }
      ],
      "stateMutability": "view",
      "type": "function"
    },
    {
      "inputs": [
        {
          "internalType": "uint256",
          "name": "taskId",
          "type": "uint256"
        },
        {
          "internalType": "string",
          "name": "Note",
          "type": "string"
        },
        {
          "internalType": "string",
          "name": "GithubFixedURL",
          "type": "string"
        }
      ],
      "name": "reSubmitTask",
      "outputs": [],
      "stateMutability": "nonpayable",
      "type": "function"
    },
    {
      "inputs": [
        {
          "internalType": "string",
          "name": "Name",
          "type": "string"
        },
        {
          "internalType": "uint8",
          "name": "Age",
          "type": "uint8"
        }
      ],
      "name": "register",
      "outputs": [],
      "stateMutability": "nonpayable",
      "type": "function"
    },
    {
      "inputs": [
        {
          "internalType": "uint256",
          "name": "taskId",
          "type": "uint256"
        },
        {
          "internalType": "address",
          "name": "_applicant",
          "type": "address"
        }
      ],
      "name": "rejectJoinRequest",
      "outputs": [],
      "stateMutability": "nonpayable",
      "type": "function"
    },
    {
      "inputs": [],
      "name": "reputationPoints",
      "outputs": [
        {
          "internalType": "uint32",
          "name": "CancelByMe",
          "type": "uint32"
        },
        {
          "internalType": "uint32",
          "name": "requestCancel",
          "type": "uint32"
        },
        {
          "internalType": "uint32",
          "name": "respondCancel",
          "type": "uint32"
        },
        {
          "internalType": "uint32",
          "name": "revision",
          "type": "uint32"
        },
        {
          "internalType": "uint32",
          "name": "taskAcceptCreator",
          "type": "uint32"
        },
        {
          "internalType": "uint32",
          "name": "taskAcceptMember",
          "type": "uint32"
        },
        {
          "internalType": "uint32",
          "name": "deadlineHitCreator",
          "type": "uint32"
        },
        {
          "internalType": "uint32",
          "name": "deadlineHitMember",
          "type": "uint32"
        }
      ],
      "stateMutability": "view",
      "type": "function"
    },
    {
      "inputs": [
        {
          "internalType": "uint256",
          "name": "taskId",
          "type": "uint256"
        },
        {
          "internalType": "string",
          "name": "reason",
          "type": "string"
        }
      ],
      "name": "requestCancel",
      "outputs": [],
      "stateMutability": "nonpayable",
      "type": "function"
    },
    {
      "inputs": [
        {
          "internalType": "uint256",
          "name": "taskId",
          "type": "uint256"
        }
      ],
      "name": "requestJoinTask",
      "outputs": [],
      "stateMutability": "payable",
      "type": "function"
    },
    {
      "inputs": [
        {
          "internalType": "uint256",
          "name": "taskId",
          "type": "uint256"
        },
        {
          "internalType": "string",
          "name": "Note",
          "type": "string"
        },
        {
          "internalType": "uint256",
          "name": "additionalDeadlineHours",
          "type": "uint256"
        }
      ],
      "name": "requestRevision",
      "outputs": [],
      "stateMutability": "nonpayable",
      "type": "function"
    },
    {
      "inputs": [
        {
          "internalType": "uint256",
          "name": "taskId",
          "type": "uint256"
        },
        {
          "internalType": "string",
          "name": "PullRequestURL",
          "type": "string"
        },
        {
          "internalType": "string",
          "name": "Note",
          "type": "string"
        }
      ],
      "name": "requestSubmitTask",
      "outputs": [],
      "stateMutability": "nonpayable",
      "type": "function"
    },
    {
      "inputs": [
        {
          "internalType": "uint256",
          "name": "taskId",
          "type": "uint256"
        },
        {
          "internalType": "bool",
          "name": "approve",
          "type": "bool"
        }
      ],
      "name": "respondCancel",
      "outputs": [],
      "stateMutability": "nonpayable",
      "type": "function"
    },
    {
      "inputs": [
        {
          "internalType": "uint256",
          "name": "newAlgoConstant",
          "type": "uint256"
        }
      ],
      "name": "setAlgoConstant",
      "outputs": [],
      "stateMutability": "nonpayable",
      "type": "function"
    },
    {
      "inputs": [
        {
          "internalType": "uint64",
          "name": "newCooldown",
          "type": "uint64"
        }
      ],
      "name": "setCooldownHour",
      "outputs": [],
      "stateMutability": "nonpayable",
      "type": "function"
    },
    {
      "inputs": [
        {
          "internalType": "uint32",
          "name": "_maxReward",
          "type": "uint32"
        }
      ],
      "name": "setMaxReward",
      "outputs": [],
      "stateMutability": "nonpayable",
      "type": "function"
    },
    {
      "inputs": [
        {
          "internalType": "uint32",
          "name": "newMaxStake",
          "type": "uint32"
        }
      ],
      "name": "setMaxStake",
      "outputs": [],
      "stateMutability": "nonpayable",
      "type": "function"
    },
    {
      "inputs": [
        {
          "internalType": "uint32",
          "name": "_minRevisionTimeInHour",
          "type": "uint32"
        }
      ],
      "name": "setMinRevisionTimeInHour",
      "outputs": [],
      "stateMutability": "nonpayable",
      "type": "function"
    },
    {
      "inputs": [
        {
          "internalType": "uint32",
          "name": "newNegPenalty",
          "type": "uint32"
        }
      ],
      "name": "setNegativePenalty",
      "outputs": [],
      "stateMutability": "nonpayable",
      "type": "function"
    },
    {
      "inputs": [
        {
          "internalType": "uint32",
          "name": "newCancelByMe",
          "type": "uint32"
        },
        {
          "internalType": "uint32",
          "name": "newrequestCancel",
          "type": "uint32"
        },
        {
          "internalType": "uint32",
          "name": "newrespondCancel",
          "type": "uint32"
        },
        {
          "internalType": "uint32",
          "name": "newrevision",
          "type": "uint32"
        },
        {
          "internalType": "uint32",
          "name": "newtaskAcceptCreator",
          "type": "uint32"
        },
        {
          "internalType": "uint32",
          "name": "newtaskAcceptMember",
          "type": "uint32"
        },
        {
          "internalType": "uint32",
          "name": "newdeadlineHitCreator",
          "type": "uint32"
        },
        {
          "internalType": "uint32",
          "name": "newdeadlineHitMember",
          "type": "uint32"
        }
      ],
      "name": "setPenaltyPoint",
      "outputs": [],
      "stateMutability": "nonpayable",
      "type": "function"
    },
    {
      "inputs": [
        {
          "internalType": "uint32",
          "name": "newfeePercentage",
          "type": "uint32"
        }
      ],
      "name": "setfeePercentage",
      "outputs": [],
      "stateMutability": "nonpayable",
      "type": "function"
    },
    {
      "inputs": [],
      "name": "systemWallet",
      "outputs": [
        {
          "internalType": "address payable",
          "name": "",
          "type": "address"
        }
      ],
      "stateMutability": "view",
      "type": "function"
    },
    {
      "inputs": [],
      "name": "taskCounter",
      "outputs": [
        {
          "internalType": "uint256",
          "name": "",
          "type": "uint256"
        }
      ],
      "stateMutability": "view",
      "type": "function"
    },
    {
      "inputs": [
        {
          "internalType": "uint256",
          "name": "taskId",
          "type": "uint256"
        }
      ],
      "name": "triggerDeadline",
      "outputs": [],
      "stateMutability": "nonpayable",
      "type": "function"
    },
    {
      "inputs": [],
      "name": "unpause",
      "outputs": [],
      "stateMutability": "nonpayable",
      "type": "function"
    },
    {
      "inputs": [
        {
          "internalType": "address",
          "name": "newImplementation",
          "type": "address"
        },
        {
          "internalType": "bytes",
          "name": "data",
          "type": "bytes"
        }
      ],
      "name": "upgradeToAndCall",
      "outputs": [],
      "stateMutability": "payable",
      "type": "function"
    },
    {
      "inputs": [],
      "name": "withdraw",
      "outputs": [],
      "stateMutability": "nonpayable",
      "type": "function"
    },
    {
      "inputs": [],
      "name": "withdrawToSystemWallet",
      "outputs": [],
      "stateMutability": "nonpayable",
      "type": "function"
    },
    {
      "inputs": [
        {
          "internalType": "address",
          "name": "",
          "type": "address"
        }
      ],
      "name": "withdrawable",
      "outputs": [
        {
          "internalType": "uint256",
          "name": "",
          "type": "uint256"
        }
      ],
      "stateMutability": "view",
      "type": "function"
    },
    {
      "stateMutability": "payable",
      "type": "receive"
    }
  ],
  "bytecode": "0x60a0806040523460295730608052615fe3908161002f82396080518181816136a001526137450152f35b600080fdfe60e06040526004361015610013575b600080fd5b60003560e01c80630a07fae61461415157806310384ce914613ea25780632595141b14613dda5780632737399014613d4e5780632a5c4e5c14613cc657806334533fbb14613c9d5780633ccfd60b14613b385780633f4ba83a14613a54578063463c0c30146139975780634ee4de7d146139785780634f1ef286146136f757806352d1902d1461368d578063586717301461366f5780635c975abb1461363f5780635d0e05de146132575780635e54a14014613172578063632411a5146130e95780636d8ed69214612f4e5780636ddf03cf14612f30578063737b473914612ea7578063753edc5514612d4a578063767b79ed14612a9e5780638456cb59146129c957806386c3f569146123435780638cab7be41461228d5780638ff388c71461209a57806390be10cc1461205357806399b42ed014611fda5780639d4a14fa14611f32578063a12d93f814611ead578063a914297614611d63578063ad3cb1cc14611d1c578063ad7d3a7214611cf3578063b8be2fea14611bd0578063ba55b46114611ace578063c5246e8c14611662578063cca84a0c1461156a578063ce513b6f14611530578063ced660c31461147b578063d208aafc14611455578063d9c8a38b1461132c578063e92553d2146110b8578063efcb50b614611076578063f4b2a46e14610f35578063f77cb8c914610b0c578063fa1273ea146109cb578063fc9e43931461084a578063fef5d390146103ec578063ff91221f146103975763fff22f6e0361000e573461000e57602036600319011261000e57610257614494565b600054604051633f784de560e11b815233600482015290602090829060249082906001600160a01b03165afa801561038b5761029b9160009161035c575b50614a44565b6102a3615cbb565b63ffffffff81166064811161031a57156102dc576008805463ffffffff60601b191660609290921b63ffffffff60601b16919091179055005b60405162461bcd60e51b815260206004820152601660248201527506e65672070656e616c74792063616e277420626520360541b6044820152606490fd5b60405162461bcd60e51b815260206004820152601a60248201527906e65672070656e616c7479206d757374206265203c3d203130360341b6044820152606490fd5b61037e915060203d602011610384575b61037681836145c3565b810190614949565b38610295565b503d61036c565b6040513d6000823e3d90fd5b3461000e57602036600319011261000e5760043580600052600460205260ff600b6040600020015460201c16156103db576103d9906103d4615cbb565b615911565b005b63da319dff60e01b60005260046000fd5b3461000e576103fa366146d6565b60008581526004602052604090206002015492949390926001600160a01b031633036107dc5783600052600460205260ff600b6040600020015460201c16156103db57610445615cbb565b600054604051633f784de560e11b8152336004820152906001600160a01b0316602082602481845afa90811561038b5761048d60209260049460009161082d575b5015614961565b604051638da5cb5b60e01b815292839182905afa801561038b576104c5916000916107fe575b506001600160a01b03163314156149ba565b836000526004602052604060002060ff60018201541660078110156106aa576003036107ed576002810154336001600160a01b03909116036107dc5785156107cb5783156107ba57600701549161053e604051916105228361458d565b61052d368986614601565b835260208301953387523691614601565b926040820193845260608201936001855260808301956000875260a084019283528760005260026020526040600020935180519060018060401b038211610732576105938261058d885461472b565b88614904565b602090601f8311600114610753576105b6929160009183610748575b5050614acb565b84555b516001840180546001600160a01b0319166001600160a01b039290921691909117905551805160028401916001600160401b0382116107325761060682610600855461472b565b85614904565b602090601f83116001146106cb576106289291600091836106c0575050614acb565b90555b6003820193519060048210156106aa5761068b6106a59560ff7f9989978868daa22b7a8a054a31e686ab83a420750a2a60b58facca87bf7c1219986004958280198554169116178355511661ff0082549160081b169061ff001916179055565b519101556040519182916020835233966020840191615253565b0390a3005b634e487b7160e01b600052602160045260246000fd5b015190508b806105af565b90601f1983169184600052816000209260005b81811061071a5750908460019594939210610701575b505050811b01905561062b565b015160001960f88460031b161c191690558a80806106f4565b929360206001819287860151815501950193016106de565b634e487b7160e01b600052604160045260246000fd5b015190508c806105af565b90601f1983169187600052816000209260005b8181106107a25750908460019594939210610789575b505050811b0184556105b9565b015160001960f88460031b161c191690558b808061077c565b92936020600181928786015181550195019301610766565b6324317f8b60e11b60005260046000fd5b631ca4916960e21b60005260046000fd5b631e50374d60e01b60005260046000fd5b63fe89421760e01b60005260046000fd5b610820915060203d602011610826575b61081881836145c3565b81019061499b565b876104b3565b503d61080e565b6108449150843d86116103845761037681836145c3565b8a610486565b3461000e57602036600319011261000e5733600052600160205260ff60036040600020015460281c16156109ba5760043560009081526005602052604090208054906001600160401b03821161073257604051916108ae60208260051b01846145c3565b8083526020830190819260005260206000206000925b82841061094d5784866040519182916020830190602084525180915260408301919060005b8181106108f7575050500390f35b91935091602060a0600192608087518580851b038151168352848101518584015261092a60408201516040850190614688565b6060810151151560608401520151151560808201520194019101918493926108e9565b6040519061095a82614572565b82546001600160a01b0316825260018301546020830152600283015460ff81169160068310156106aa578360ff60209360039560406001980152818160081c161515606084015260101c16151560808201528152019201930192906108c4565b63aba4733960e01b60005260046000fd5b3461000e57604036600319011261000e57600435602435801515810361000e5781600052600460205260ff600b6040600020015460201c16156103db57610a10615c7f565b600054604051633f784de560e11b8152336004820152906001600160a01b0316602082602481845afa90811561038b57610a57602092600494600091610aef575015614961565b604051638da5cb5b60e01b815292839182905afa801561038b57610a8e91600091610ad057506001600160a01b03163314156149ba565b33600052600160205260ff60036040600020015460281c16156109ba57610abc91610ab7615cbb565b615639565b6001600080516020615f4e83398151915255005b610ae9915060203d6020116108265761081881836145c3565b846104b3565b610b069150843d86116103845761037681836145c3565b87610486565b3461000e57604036600319011261000e576004356024356001600160401b03811161000e57610b3f903690600401614519565b610b4a929192615cbb565b33600052600160205260ff60036040600020015460281c16156109ba57600054604051633f784de560e11b8152336004820152906001600160a01b0316602082602481845afa90811561038b57610bae602092600494600091610f18575015614961565b604051638da5cb5b60e01b815292839182905afa801561038b57610be591600091610ef957506001600160a01b03163314156149ba565b81600052600460205260ff600b6040600020015460201c16156103db578160005260046020526040600020826000526006602052604060002090600382019160ff83541660028110156106aa57600114610ee857600182019260018060a01b03845460081c1680331493841580610ed1575b6107dc57600201546001600160a01b0316908115610ec0578615610eaf5760049415610ea857505b82546001600160a01b0319908116331784556001840180549091166001600160a01b0392909216919091179055600854610cce906001600160401b0390610cc790821661561d565b1642614845565b6002830155805460ff19166001179055016001600160401b03831161073257610d0183610cfb835461472b565b83614904565b6000601f8411600114610e345790610d348480600080516020615e8e833981519152969594600091610e29575b50614acb565b90555b600460ff1982541617905533600052600160205260ff60036040600020015460281c16610da4575b600854610d8b90610d78906001600160401b031661561d565b9460405192604084526040840191615253565b6001600160401b039094166020820152339381900390a3005b33600052600160205263ffffffff6003604060002001541663ffffffff60075460201c16809110600014610df45750336000526001602052600360406000200163ffffffff198154169055610d5f565b33600052600160205263ffffffff610e1760036040600020019282845416614ade565b1663ffffffff19825416179055610d5f565b905088013589610d2e565b8181526020812090601f198516815b818110610e9057509085600080516020615e8e833981519152969594939210610e76575b5050600183811b019055610d37565b870135600019600386901b60f8161c191690558680610e67565b9192602060018192868c013581550194019201610e43565b9050610c7f565b6337b89b9360e21b60005260046000fd5b6316f1484160e01b60005260046000fd5b5060028101546001600160a01b0316331415610c57565b6323355c1560e01b60005260046000fd5b610f12915060203d6020116108265761081881836145c3565b856104b3565b610f2f9150843d86116103845761037681836145c3565b88610486565b3461000e57602036600319011261000e5760043560005260046020526040600020805490600181015460ff81169060018060a01b0360028401541690610f7d60038501614765565b93610f8a60048201614765565b60058201549463ffffffff600684015416600784015490600885015492600986015494600b600a880154970154976040519c8d5260078310156106aa578c9b61022060808e60ff9d6110029561101098602084015260018060a01b039060081c166040830152606082015201526102208d0190614695565b908b820360a08d0152614695565b9760c08a015260e0890152610100880152610120870152610140860152610160850152818116610180850152818160081c1615156101a0850152818160101c1615156101c0850152818160181c1615156101e085015260201c1615156102008301520390f35b3461000e57608036600319011261000e5761108f614546565b60443560ff8116810361000e576020916110b09160643591602435906155ce565b604051908152f35b3461000e57600036600319011261000e5733600052600160205260ff60036040600020015460281c16156109ba57600054604051633f784de560e11b8152336004820152906001600160a01b0316602082602481845afa90811561038b5761112d60209260049460009161130f575015614961565b604051638da5cb5b60e01b815292839182905afa801561038b57611164916000916112f057506001600160a01b03163314156149ba565b61116f3315156149f8565b33600052600160205260c07f8b005d78378f863da631633b02176b4364095ccf2cc5303c1d28cf8c77c5afa160ff60406000206040516111ae816145a8565b8154815260018201546020820152600282015460408201526111fc600460038401549363ffffffff85166060850152856080850195818160201c16875260281c16151560a085015201614765565b948591015251169161121960405191604083526040830190614695565b9260208201528033930390a2336000526001602052600460406000206000815560006001820155600060028201556000600382015501611259815461472b565b90816112ac575b6112a8604080519061127281836145c3565b6017825276556e7265676973746572205375636365737366756c6c7960481b602083015251918291602083526020830190614695565b0390f35b81601f600093116001146112c45750555b8080611260565b818352602083206112e091601f0160051c8101906001016148c5565b80825281602081209155556112bd565b611309915060203d6020116108265761081881836145c3565b826104b3565b6113269150843d86116103845761037681836145c3565b85610486565b3461000e57600036600319011261000e57606060c060405161134d816145a8565b60008152600060208201526000604082015260008382015260006080820152600060a0820152015233600052600160205260ff60036040600020015460281c16156109ba5733600052600160205260406000206040516113ac816145a8565b815481526112a8600183015492602083019384526002810154906040840191825260ff60038201549163ffffffff606087018185168152611409600460808a0194868860201c1686528660a08c019860281c161515885201614765565b9560c08901968752604051998a9960208b525160208b01525160408a015251606089015251166080870152511660a085015251151560c08401525160e080840152610100830190614695565b3461000e57604036600319011261000e5760206110b061147361455c565b60043561552d565b3461000e57602036600319011261000e576024600435602060018060a01b036000541660405193848092633f784de560e11b82523360048301525afa90811561038b576114f36020927f9b5feee8307e97be4e51e7d6e1d7edfe44b2a8e87c31cc89022c8b93393bfcd0946000916115135750614a44565b6114fb615cbb565b611506811515614a7f565b80600b55604051908152a1005b61152a9150843d86116103845761037681836145c3565b85610295565b3461000e57602036600319011261000e576001600160a01b03611551614546565b1660005260036020526020604060002054604051908152f35b3461000e57602036600319011261000e5760043580600052600460205260ff600b6040600020015460201c16156103db5760008181526004602052604090206001015460081c6001600160a01b03163303611651576115c7615cbb565b806000526004602052600160406000200160ff81541660078110156106aa5760010361161f57805460ff191660021790557fe0a3eabfba8d6b242de244fdd6f0372ee66d472686b2cfd89420ef24c0462201600080a2005b60405162461bcd60e51b815260206004820152600a6024820152696e6f742061637469766560b01b6044820152606490fd5b63eabf778760e01b60005260046000fd5b3461000e5761022036600319011261000e5761167c614546565b61168461455c565b906044356001600160401b038116810361000e576116a06144ba565b6116a86144cd565b6116b06144e0565b6116b86144f3565b926116c1614506565b90610104359163ffffffff8316830361000e57610124359363ffffffff8516850361000e57610144359563ffffffff8716870361000e57610164359763ffffffff8916890361000e57610184359963ffffffff8b168b0361000e576101a4359b63ffffffff8d168d0361000e576101c4359d8e63ffffffff81160361000e576101e435608081905263ffffffff8116900361000e576102043560a081905263ffffffff8116900361000e57600080516020615f6e8339815191525460c08190526001600160401b031680159081611abd575b6001149081611ab3575b159081611aaa575b50611a9957600080516020615f6e83398151915280546001600160401b031916600117905560c05160401c60ff1615611a74575b6001600160a01b0316906117ec82615d02565b6117f581615d02565b6117fd615dfe565b611805615dfe565b61180d615dfe565b6001600080516020615f4e83398151915255611827615dfe565b60018060a01b031660018060a01b0319600054161760005560018060a01b0319600c541617600c556103e8600b5560006009556000600a5560405161186b816145a8565b6001600160401b0391821680825263ffffffff84811660208401528581166040848101919091528782166060808601919091528983166080808701919091528b841660a080880191909152938d1660c09687015296821b63ffffffff60401b169093179690921b63ffffffff60601b16959095179590931b63ffffffff60801b16949094179490921b63ffffffff60a01b16939093179390911b63ffffffff60c01b169290921760e09390931b6001600160e01b0319169290921760085590516101008101929183118184101761073257604092835263ffffffff918216808252848316602080840191909152868416838601528784166060808501919091528985166080808601919091528b861660a0808701919091528151871660c080880191909152815190971660e096870152815181519990941b63ffffffff60201b1690941798871b63ffffffff60401b169890981798901b63ffffffff60601b16979097179790951b63ffffffff60801b16969096179690931b63ffffffff60a01b169590951792821b63ffffffff60c01b16929092179190921b6001600160e01b0319161760075551901c60ff1615611a2057005b60ff60401b19600080516020615f6e8339815191525416600080516020615f6e833981519152557fc7f505b2f371ae2175ee4913f4499e1f2633a7b5936321eed1cdaeb6115181d2602060405160018152a1005b600080516020615f6e833981519152805460ff60401b1916600160401b1790556117d9565b63f92ee8a960e01b60005260046000fd5b905015386117a5565b303b15915061179d565b60c05160401c60ff16159150611793565b3461000e57611adc366146d6565b6000858152600460205260409020600201549093919291906001600160a01b031633036107dc5784600052600460205260ff600b6040600020015460201c16156103db57611b28615cbb565b600054604051633f784de560e11b815233600482015295906001600160a01b0316602087602481845afa90811561038b57611b7060209260049960009161082d575015614961565b604051638da5cb5b60e01b815297889182905afa95861561038b576103d996611bac91600091611bb157506001600160a01b03163314156149ba565b615274565b611bca915060203d6020116108265761081881836145c3565b886104b3565b3461000e57600036600319011261000e57600054604051633f784de560e11b815233600482015290602090829060249082906001600160a01b03165afa801561038b57611c2491600091611cd45750614a44565b611c2c615c7f565b611c34615cbb565b600a548015611ca55760207f8c982262467417843067e76f4bbf0311c55c60f68259c0082063eee7732a2a1a916000600a55611c8a60008080808560018060a01b03600c54165af1611c84615185565b506151b5565b604051908152a16001600080516020615f4e83398151915255005b60405162461bcd60e51b81526020600482015260076024820152666e6f206665657360c81b6044820152606490fd5b611ced915060203d6020116103845761037681836145c3565b82610295565b3461000e57600036600319011261000e57600c546040516001600160a01b039091168152602090f35b3461000e57600036600319011261000e576112a86040805190611d3f81836145c3565b60058252640352e302e360dc1b602083015251918291602083526020830190614695565b3461000e57602036600319011261000e57600060a0604051611d848161458d565b6060815282602082015260606040820152826060820152826080820152015233600052600160205260ff60036040600020015460281c16156109ba576004356000526002602052604060002060405190611ddd8261458d565b611de681614765565b825260018101546001600160a01b031660208301908152611e0960028301614765565b60408401908152600383015492606085019260ff851660048110156106aa57611e8792600491865260ff608089019760081c16875201549260a08701938452611e6560405197602089525160c060208a015260e0890190614695565b91516001600160a01b0316604088015251868203601f19016060880152614695565b915160048110156106aa57849360ff916080860152511660a08401525160c08301520390f35b3461000e57604036600319011261000e5760243560043560005260056020526040600020805482101561000e5760a091611ee691614656565b5060ff600180841b038254169160026001820154910154906040519384526020840152611f1860408401838316614688565b818160081c161515606084015260101c1615156080820152f35b3461000e57602036600319011261000e57611f4b614494565b600054604051633f784de560e11b815233600482015290602090829060249082906001600160a01b03165afa801561038b57611f8e91600091611fbb5750614a44565b611f96615cbb565b6008805463ffffffff60a01b191660a09290921b63ffffffff60a01b16919091179055005b611fd4915060203d6020116103845761037681836145c3565b83610295565b3461000e57600036600319011261000e5760e06008546040519060018060401b038116825263ffffffff8160401c16602083015263ffffffff8160601c16604083015263ffffffff8160801c16606083015263ffffffff8160a01c16608083015263ffffffff8160c01c1660a0830152821c60c0820152f35b3461000e57600036600319011261000e5733600052600160205260ff60036040600020015460281c16156109ba573360005260036020526020604060002054604051908152f35b3461000e57604036600319011261000e576004356120b661455c565b81600052600460205260ff600b6040600020015460201c16156103db5760008281526004602052604090206001015460081c6001600160a01b031633036116515790612100615c7f565b612108615cbb565b6000818152600560209081526040808320600490925282206001600160a01b039094169391929190835b815481101561228057856121468284614656565b50546001600160a01b03161480612265575b61216457600101612132565b60019293945081600261217a836121b595614656565b5001805461ff001916905560026121918383614656565b5001600260ff198254161790556002850187858060a01b0319825416179055614656565b500154600a820155600b8101805461ff0019166101001790556121d86001615213565b63ffffffff60068201541690610e10820291808304610e10149015171561224f5761220560019242614845565b600782015501805460ff191660031790557fa15a372eebffa78fac354b5e2229bc1a3bad4e94c881acfb6f86d381c50ba794600080a36001600080516020615f4e83398151915255005b634e487b7160e01b600052601160045260246000fd5b5060ff60026122748385614656565b50015460081c16612158565b505090916121d890615213565b3461000e57602036600319011261000e5760246122a8614546565b600054604051633f784de560e11b81523360048201529260209184919082906001600160a01b03165afa90811561038b5761230e6020927f2e37d39727ffd415860d40304a72d7bab7e1ced441df8ffb9d48cdd0c0aff23c946000916115135750614a44565b612316615cbb565b6001600160a01b031661232881615d02565b600c80546001600160a01b03191682179055604051908152a1005b60a036600319011261000e576004356001600160401b03811161000e5761236e903690600401614638565b6024356001600160401b03811161000e5761238d903690600401614638565b906123966144a7565b6064359160ff83169081840361000e57608435926123b2615cbb565b33600052600160205260ff60036040600020015460281c16156109ba57600054604051633f784de560e11b8152336004820152906001600160a01b0316602082602481845afa90811561038b576124166020926004946000916129ac575015614961565b604051638da5cb5b60e01b815292839182905afa801561038b5761244d91600091611bb157506001600160a01b03163314156149ba565b6124583315156149f8565b6124636009546148b6565b928360095584159585670de0b6b3a7640000810204670de0b6b3a76400001487171561224f5783511561299b578751156107cb5763ffffffff60085493169663ffffffff8460401c16881061298a578360e01c831161297a576129695763ffffffff8360801c16861161296957866124e691670de0b6b3a76400008802336155ce565b918263ffffffff8260c01c161061295857606461250f63ffffffff6125389360a01c1685614ab8565b0461251c81600a54614845565b600a5561253384670de0b6b3a76400008902614845565b614845565b3403612947576040519561022087016001600160401b03811188821017610732576040528487526020870197600189523360408901526000606089015284608089015260a0880152670de0b6b3a7640000860260c088015260e087015260006101008701524261012087015281610140870152600061016087015261018086015260006101a086015260016101c086015260006101e0860152600161020086015282600052600460205260406000209585518755519460078610156106aa576001870180546040830151610100600160a81b0360089190911b1660ff989098166001600160a81b0319909116179690961790955560608501516002870180546001600160a01b039092166001600160a01b031990921691909117905560808501518051600096916001600160401b0382116128bf576126878261267e60038c015461472b565b60038c01614904565b602090601f83116001146128de576126a892918991836128d3575050614acb565b60038801555b60a081015180519097906001600160401b0381116128bf576126e0816126d7600485015461472b565b60048501614904565b6020601f821160011461283c579161271982600b93610200958c9d600080516020615f8e8339815191529b9c9d92612831575050614acb565b60048201555b60c0840151600582015563ffffffff60e08501511663ffffffff60068301911663ffffffff19825416179055610100840151600782015561012084015160088201556101408401516009820155610160840151600a820155019160ff6101808201511660ff1984541617835561279c6101a0820151151584614852565b6127ad6101c082015115158461486a565b6101e08101518354929091015164ffff0000001990921690151560181b63ff0000001617901515602090811b60ff60201b1691909117909155338752600190526040862080546127fc906148b6565b9055670de0b6b3a764000061281c60405193606085526060850190614695565b9502602083015260408201528033940390a380f35b015190508d806105af565b60048301895280892099895b601f19841681106128a7575082600080516020615f8e83398151915298999a9b6102009593600193600b96601f1981161061288e575b505050811b01600482015561271f565b015160001960f88460031b161c191690558c808061287e565b828201518c556001909b019a60209283019201612848565b634e487b7160e01b88526041600452602488fd5b015190508a806105af565b60038a0189528189209190601f1984168a5b81811061292f5750908460019594939210612916575b505050811b0160038801556126ae565b015160001960f88460031b161c19169055898080612906565b929360206001819287860151815501950193016128f0565b6378de4a6960e11b60005260046000fd5b63c9e0390760e01b60005260046000fd5b633853986560e01b60005260046000fd5b6255af5f60e91b60005260046000fd5b631da7447960e21b60005260046000fd5b6306232dbd60e31b60005260046000fd5b6129c39150843d86116103845761037681836145c3565b8b610486565b3461000e57600036600319011261000e57600054604051633f784de560e11b815233600482015290602090829060249082906001600160a01b03165afa801561038b57612a1d91600091611cd45750614a44565b612a25615cbb565b600160ff19600080516020615f2e833981519152541617600080516020615f2e833981519152557f62e78cea01bee320cd4e420270b5ea74000d11b0c9f74754ebdbfc544b05a2586020604051338152a1337f81990fd9a5c552b8e3677917d8a03c07678f0d2cb68f88b634aca2022e9bd19f600080a2005b3461000e57604036600319011261000e576004356001600160401b03811161000e57612ace903690600401614519565b6024359160ff83169283810361000e57600054604051633f784de560e11b8152336004820152906001600160a01b0316602082602481845afa90811561038b57612b25602092600494600091612d2d575015614961565b604051638da5cb5b60e01b815292839182905afa801561038b57612b5c91600091612d0e57506001600160a01b03163314156149ba565b612b673315156149f8565b336000526001602052604060002090600382019160ff835460281c16612cfd578415612cec5760128610612cdb5760648611612cdb57825463ffffffff191683556000600182018190556002820155825460ff60281b1916600160281b1783556004016001600160401b03851161073257612be685610cfb835461472b565b6000601f8611600114612c625791612c499391612c1d8780600080516020615eae833981519152999896600091612c575750614acb565b90555b815460ff60201b191660209190911b60ff60201b16179055604080518181529390840191615253565b9260208201528033930390a2005b90508601358b610d2e565b8181526020812090601f198716815b818110612cc3575091612c4995939188600080516020615eae8339815191529998969410612ca9575b5050600186811b019055612c20565b850135600019600389901b60f8161c191690558880612c9a565b9192602060018192868b013581550194019201612c71565b6304530cb760e41b60005260046000fd5b63430f13b360e01b60005260046000fd5b630f018e4960e21b60005260046000fd5b612d27915060203d6020116108265761081881836145c3565b866104b3565b612d449150843d86116103845761037681836145c3565b89610486565b3461000e5761010036600319011261000e57612d64614494565b6024359063ffffffff8216820361000e57612d7d6144a7565b91612d866144ba565b91612d8f6144cd565b612d976144e0565b92612da06144f3565b94612da9614506565b600054604051633f784de560e11b815233600482015291959190602090829060249082906001600160a01b03165afa801561038b57612def91600091612e885750614a44565b612df7615cbb565b60c09690961b63ffffffff60c01b1660a09590951b63ffffffff60a01b1660209290921b63ffffffff60201b1663ffffffff969096169590951760409690961b63ffffffff60401b169590951760609490941b63ffffffff60601b169390931760809390931b63ffffffff60801b1692909217929092179190911760e09190911b6001600160e01b03191617600755005b612ea1915060203d6020116103845761037681836145c3565b8a610295565b3461000e57602036600319011261000e57612ec0614494565b600054604051633f784de560e11b815233600482015290602090829060249082906001600160a01b03165afa801561038b57612f0391600091611fbb5750614a44565b612f0b615cbb565b6008805463ffffffff60801b191660809290921b63ffffffff60801b16919091179055005b3461000e57600036600319011261000e576020600b54604051908152f35b3461000e57604036600319011261000e57600435612f6a61455c565b81600052600460205260ff600b6040600020015460201c16156103db5760008281526004602052604090206001015460081c6001600160a01b031633036116515790612fb4615c7f565b612fbc615cbb565b60008181526005602052604081206001600160a01b0390931692909190825b81548110156130dd5784612fef8284614656565b50546001600160a01b031614806130c2575b61300d57600101612fdb565b81929350806002613022613053938295614656565b5001805461ff001916905560016130398286614656565b500154936000600161304b8484614656565b500155614656565b50016201000062ff00001982541617905582600052600360205261307d6040600020918254614845565b90556130896001615213565b7f659db9764efb778e1b0294e020cbc7f55b198481945e7dd60910f555b27399dc600080a36001600080516020615f4e83398151915255005b5060ff60026130d18385614656565b50015460081c16613001565b50509061308990615213565b3461000e57602036600319011261000e57613102614494565b600054604051633f784de560e11b815233600482015290602090829060249082906001600160a01b03165afa801561038b5761314591600091611fbb5750614a44565b61314d615cbb565b6008805463ffffffff60401b191660409290921b63ffffffff60401b16919091179055005b3461000e57602036600319011261000e5760043580600052600460205260ff600b6040600020015460201c16156103db5760008181526004602052604090206001015460081c6001600160a01b03163303611651576131cf615cbb565b806000526004602052600160406000200160ff81541660078110156106aa5760020361322757805460ff191660011790557f383b6ce38b867405b4f42fa404692e07842868068badd063c9bfeb0e7f263f62600080a2005b60405162461bcd60e51b81526020600482015260086024820152673737ba1037b832b760c11b6044820152606490fd5b3461000e57602036600319011261000e5760043580600052600460205260ff600b6040600020015460201c16156103db57613290615c7f565b600054604051633f784de560e11b8152336004820152906001600160a01b0316602082602481845afa90811561038b576132d7602092600494600091613622575015614961565b604051638da5cb5b60e01b815292839182905afa801561038b5761330e9160009161360357506001600160a01b03163314156149ba565b613316615cbb565b80600052600460205260406000206001810190815460018060a01b038160081c16331415806135ec575b6107dc5783600052600660205260ff6003604060002001541660028110156106aa57600114610ee85760ff1660078110156106aa576003036107ed576002810180546001600160a01b0316919033830361354357600b9250600a820154906133e760646133d2816133bc63ffffffff60085460601c1687614ab8565b049463ffffffff6133cb615ce5565b1690614ab8565b04926125336009860154600587015490614845565b60018060a01b03865460081c16600052600360205261340c6040600020918254614845565b9055546001600160a01b031660009081526003602052604090208054909161343391614845565b905501805462ffff00191690555b600660ff1982541617905533600052600160205260ff60036040600020015460281c166134c1575b336000526001602052600260406000200161348481546148b6565b905533907f19f7047fbece8b5fc78b72bcce829a232f26b08806e65852e2e4afb96572b365600080a36001600080516020615f4e83398151915255005b33600052600160205263ffffffff6003604060002001541663ffffffff6007541680911060001461350e5750336000526001602052600360406000200163ffffffff198154169055613469565b33600052600160205263ffffffff61353160036040600020019282845416614ade565b1663ffffffff19825416179055613469565b508115610ec057600b9160098201549061359a61358f60646135838161357463ffffffff60085460601c1688614ab8565b049563ffffffff6133cb615ce5565b04600586015490614845565b92600a850154614845565b9060005260036020526135b36040600020918254614845565b905560018060a01b03845460081c1660005260036020526135da6040600020918254614845565b905501805462ffff0019169055613441565b5060028201546001600160a01b0316331415613340565b61361c915060203d6020116108265761081881836145c3565b836104b3565b6136399150843d86116103845761037681836145c3565b86610486565b3461000e57600036600319011261000e57602060ff600080516020615f2e83398151915254166040519015158152f35b3461000e57600036600319011261000e576020600954604051908152f35b3461000e57600036600319011261000e577f00000000000000000000000000000000000000000000000000000000000000006001600160a01b031630036136e6576020604051600080516020615f0e8339815191528152f35b63703e46dd60e11b60005260046000fd5b604036600319011261000e5761370b614546565b6024356001600160401b03811161000e573660238201121561000e5761373b903690602481600401359101614601565b6001600160a01b037f000000000000000000000000000000000000000000000000000000000000000016308114908115613955575b506136e657600054604051638da5cb5b60e01b815290602090829060049082906001600160a01b03165afa90811561038b57600091613936575b506001600160a01b03163303613905576137c2615cbb565b6040516352d1902d60e01b81526001600160a01b0383169290602081600481875afa600091816138d1575b506138075783634c9c8ce360e01b60005260045260246000fd5b80600080516020615f0e8339815191528592036138bd5750813b156138a957600080516020615f0e83398151915280546001600160a01b031916821790557fbc7cd75a20ee27fd9adebab32041f755214dbc6bffa90cc0225b39da2e5c2d3b600080a281511561388f576000808360206103d995519101845af4613889615185565b91615e2c565b50503461389857005b63b398979f60e01b60005260046000fd5b634c9c8ce360e01b60005260045260246000fd5b632a87526960e21b60005260045260246000fd5b9091506020813d6020116138fd575b816138ed602093836145c3565b8101031261000e575190856137ed565b3d91506138e0565b60405162461bcd60e51b81526020600482015260096024820152682737ba1037bbb732b960b91b6044820152606490fd5b61394f915060203d6020116108265761081881836145c3565b836137aa565b600080516020615f0e833981519152546001600160a01b03161415905083613770565b3461000e57602036600319011261000e5760206110b03360043561552d565b3461000e57602036600319011261000e576004356001600160401b0381169081900361000e57600054604051633f784de560e11b81523360048201529190602090839060249082906001600160a01b03165afa90811561038b57613a266020927f67f070316c88d3e6406734e04e04c338b348d02ad310233945b773ee11e1f642946000916115135750614a44565b613a2e615cbb565b613a39811515614a7f565b600880546001600160401b03191682179055604051908152a1005b3461000e57600036600319011261000e57600054604051633f784de560e11b815233600482015290602090829060249082906001600160a01b03165afa801561038b57613aa891600091611cd45750614a44565b600080516020615f2e8339815191525460ff811615613b275760ff1916600080516020615f2e833981519152557f5db9ee0a495bf2e6ff9c91a7834c1ba4fdd244a5e8aa4e537bd38aeae4b073aa6020604051338152a1337f5b65b0c1363b3003db9bcc5e1fd8805a6d6bf5bf6dc9d3431ee4494cd7d11766600080a2005b638dfc202b60e01b60005260046000fd5b3461000e57600036600319011261000e57613b51615c7f565b33600052600160205260ff60036040600020015460281c16156109ba57600054604051633f784de560e11b8152336004820152906001600160a01b0316602082602481845afa90811561038b57613bb560209260049460009161130f575015614961565b604051638da5cb5b60e01b815292839182905afa801561038b57613bec916000916112f057506001600160a01b03163314156149ba565b613bf4615cbb565b3360005260036020526040600020548015613c6d5733600052600360205260006040812055613c2d600080808085335af1611c84615185565b6040519081527f7fcf532c15f0a6db0bd6d0e038bea71d30d808c7d98cb3bf7268a95bf5081b6560203392a26001600080516020615f4e83398151915255005b60405162461bcd60e51b81526020600482015260086024820152676e6f2066756e647360c01b6044820152606490fd5b3461000e57600036600319011261000e576000546040516001600160a01b039091168152602090f35b3461000e57600036600319011261000e576101006007546040519063ffffffff8116825263ffffffff8160201c16602083015263ffffffff8160401c16604083015263ffffffff8160601c16606083015263ffffffff8160801c16608083015263ffffffff8160a01c1660a083015263ffffffff8160c01c1660c083015260e01c60e0820152f35b3461000e57606036600319011261000e576004356024356001600160401b03811161000e57613d81903690600401614519565b82600093929352600460205260ff600b6040600020015460201c16156103db5760008281526004602052604090206001015460081c6001600160a01b03163303611651576103d992613dd1615cbb565b60443592614af8565b3461000e57602036600319011261000e576024613df5614494565b600054604051633f784de560e11b81523360048201529260209184919082906001600160a01b03165afa90811561038b57613e5b6020927f2a9bfd7fcd31c17f106a1480e6f87de8aadbaecd27864e1f2212890a34f0872a946000916115135750614a44565b613e63615cbb565b63ffffffff811690613e76821515614a7f565b6008805463ffffffff60c01b191660c09290921b63ffffffff60c01b16919091179055604051908152a1005b602036600319011261000e5760043580600052600460205260ff600b6040600020015460201c16156103db57613ed6615cbb565b33600052600160205260ff60036040600020015460281c16156109ba57600054604051633f784de560e11b8152336004820152906001600160a01b0316602082602481845afa90811561038b57613f3a602092600494600091613622575015614961565b604051638da5cb5b60e01b815292839182905afa801561038b57613f719160009161360357506001600160a01b03163314156149ba565b613f7c3315156149f8565b806000526004602052604060002081600052600560205260406000206000908054915b8281106140fc5784600185015460ff811660078110156106aa576002036107ed573360089190911c6001600160a01b0316146107ed57613fdf338261552d565b8063ffffffff60085460c01c161061295857340361294757806000526005602052604060002060405161401181614572565b33815260208101913483526040820191600183526060810193600185526080820192600084528054600160401b8110156107325761405491600182018155614656565b9190916140e657915181546001600160a01b0319166001600160a01b03919091161781559051600182015591516002929092019160068110156106aa576140b7936140ae9160ff8019865416911617845551151583614852565b5115159061486a565b604051903482527f716834564cb7c8e3d64d2045110836bf24ec2665f21cca881de739333c6d62d760203393a3005b634e487b7160e01b600052600060045260246000fd5b6141068183614656565b50546001600160a01b0316331480614136575b61412557600101613f9f565b6353efb1e560e01b60005260046000fd5b5060ff60026141458385614656565b50015460081c16614119565b3461000e57602036600319011261000e5760043580600052600460205260ff600b6040600020015460201c16156103db5760008181526004602052604090206001015460081c6001600160a01b03163303611651576141ae615c7f565b6141b6615cbb565b80600052600460205260406000208160005260026020526040600020600182019060ff82541660078110156106aa576003036107ed576003810160ff81541660048110156106aa5760010361448357600b840160ff815460181c1661444c57600094600494600185019261423460018060a01b038554161515614809565b6142476005840154600a85015490614845565b926002600982015491019360018060a01b038554168a52600360205261427260408b20918254614845565b9055825460081c6001600160a01b031689526003602052604089208054909161429a91614845565b9055805463ffffff0019166301000000179055805460ff1916600517815581546001600160a01b03168088526001602052604088206003015460281c60ff1661440c575b50805460081c6001600160a01b03168088526001602052604088206003015460281c60ff166143cc575b505460081c6001600160a01b03168652600160208190526040872001805461432f906148b6565b9055546001600160a01b031685526001602081905260408620018054614354906148b6565b9055614369614363845461472b565b846148dc565b84835580546001600160a01b0319169055600282018054859190614396906143909061472b565b826148dc565b55805461ffff191660031790550155600080516020615eee833981519152600080a26001600080516020615f4e83398151915255005b63ffffffff60075460801c16908852600160205263ffffffff6143f9600360408b2001928284541661489c565b1663ffffffff1982541617905588614308565b63ffffffff60075460a01c16908852600160205263ffffffff614439600360408b2001928284541661489c565b1663ffffffff19825416179055886142de565b60405162461bcd60e51b815260206004820152600f60248201526e185b1c9958591e4818db185a5b5959608a1b6044820152606490fd5b632901198f60e01b60005260046000fd5b6004359063ffffffff8216820361000e57565b6044359063ffffffff8216820361000e57565b6064359063ffffffff8216820361000e57565b6084359063ffffffff8216820361000e57565b60a4359063ffffffff8216820361000e57565b60c4359063ffffffff8216820361000e57565b60e4359063ffffffff8216820361000e57565b9181601f8401121561000e578235916001600160401b03831161000e576020838186019501011161000e57565b600435906001600160a01b038216820361000e57565b602435906001600160a01b038216820361000e57565b60a081019081106001600160401b0382111761073257604052565b60c081019081106001600160401b0382111761073257604052565b60e081019081106001600160401b0382111761073257604052565b601f909101601f19168101906001600160401b0382119082101761073257604052565b6001600160401b03811161073257601f01601f191660200190565b92919261460d826145e6565b9161461b60405193846145c3565b82948184528183011161000e578281602093846000960137010152565b9080601f8301121561000e5781602061465393359101614601565b90565b8054821015614672576000526003602060002091020190600090565b634e487b7160e01b600052603260045260246000fd5b9060068210156106aa5752565b919082519283825260005b8481106146c1575050826000602080949584010152601f8019910116010190565b806020809284010151828286010152016146a0565b90606060031983011261000e57600435916024356001600160401b03811161000e578161470591600401614519565b90929091604435906001600160401b03821161000e5761472791600401614519565b9091565b90600182811c9216801561475b575b602083101461474557565b634e487b7160e01b600052602260045260246000fd5b91607f169161473a565b90604051918260008254926147798461472b565b80845293600181169081156147e757506001146147a0575b5061479e925003836145c3565b565b90506000929192526020600020906000915b8183106147cb57505090602061479e9282010138614791565b60209193508060019154838589010152019101909184926147b2565b90506020925061479e94915060ff191682840152151560051b82010138614791565b1561481057565b60405162461bcd60e51b815260206004820152600d60248201526c37379039bab136b4b9b9b4b7b760991b6044820152606490fd5b9190820180921161224f57565b9061ff00825491151560081b169061ff001916179055565b9062ff0000825491151560101b169062ff00001916179055565b63ffffffff60019116019063ffffffff821161224f57565b9063ffffffff8091169116019063ffffffff821161224f57565b600019811461224f5760010190565b8181106148d0575050565b600081556001016148c5565b90601f81116148e9575050565b61479e91600052601f6020600020910160051c8101906148c5565b9190601f811161491357505050565b61479e926000526020600020906020601f840160051c8301931061493f575b601f0160051c01906148c5565b9091508190614932565b9081602091031261000e5751801515810361000e5790565b1561496857565b60405162461bcd60e51b815260206004820152600b60248201526a497320656d706c6f79656560a81b6044820152606490fd5b9081602091031261000e57516001600160a01b038116810361000e5790565b156149c157565b60405162461bcd60e51b815260206004820152600f60248201526e21b0b63632b91034b99037bbb732b960891b6044820152606490fd5b156149ff57565b60405162461bcd60e51b815260206004820152601d60248201527f63616c6c65722069732063616e74206265207a65726f206164647220210000006044820152606490fd5b15614a4b57565b60405162461bcd60e51b815260206004820152600c60248201526b4e6f7420656d706c6f79656560a01b6044820152606490fd5b15614a8657565b60405162461bcd60e51b815260206004820152600a602482015269063616e277420626520360b41b6044820152606490fd5b8181029291811591840414171561224f57565b8160011b916000199060031b1c19161790565b9063ffffffff8091169116039063ffffffff821161224f57565b92919091836000526004602052604060002090846000526002602052604060002093600283019360018060a01b0385541615610ec057600386019560ff87541660048110156106aa576001036151525763ffffffff60085460401c16841061511557610e10840293808504610e10149015171561224f57865460ff19166002908117885501916001600160401b03821161073257614b9a82610600855461472b565b600090601f83116001146150b157614bbc9291600091836150a6575050614acb565b90555b60ff845460081c169060ff821461224f57614bf16001614bf79301869061ff0082549160081b169061ff001916179055565b42614845565b906007810191825560ff845460081c1660ff600b8301541610614dc7577f33edbe073d61cf304f0e11256ba07aefb7e60a754d1e12a0f07e5b29cb3d732193600160ff92604095828060a01b03815416806000528360205285600389600020015460281c16614d39575b505001805460081c6001600160a01b0316600081815260016020528690206003015460281c8416614ca3575b50505460081c16905482519182526020820152a2565b80600052600160205263ffffffff6003876000200154169063ffffffff60075460601c16809210600014614d035750505460081c6001600160a01b031660009081526001602052849020600301805463ffffffff191690555b3880614c8d565b909150600052600160205263ffffffff614d27600387600020019282845416614ade565b1663ffffffff19825416179055614cfc565b806000528360205263ffffffff6003896000200154169063ffffffff60075460601c16809210600014614d92575050828060a01b03905416600052816020526003866000200163ffffffff1981541690555b3880614c61565b9091506000528260205263ffffffff614db5600389600020019282845416614ade565b1663ffffffff19825416179055614d8b565b5050505080600052600460205260ff600b6040600020015460201c16156103db5760008181526004602052604090206001015460081c6001600160a01b0316330361165157614e14615c7f565b614e1c615cbb565b80600052600460205260406000208160005260026020526040600020600182019060ff82541660078110156106aa576003036107ed576003810160ff81541660048110156106aa5760010361448357600b840160ff815460181c1661444c576000946004946001850192614e9a60018060a01b038554161515614809565b614ead6005840154600a85015490614845565b926002600982015491019360018060a01b038554168a526003602052614ed860408b20918254614845565b9055825460081c6001600160a01b0316895260036020526040892080549091614f0091614845565b9055805463ffffff0019166301000000179055805460ff1916600517815581546001600160a01b03168088526001602052604088206003015460281c60ff16615066575b50805460081c6001600160a01b03168088526001602052604088206003015460281c60ff16615026575b505460081c6001600160a01b031686526001602081905260408720018054614f95906148b6565b9055546001600160a01b031685526001602081905260408620018054614fba906148b6565b9055614fc9614363845461472b565b84835580546001600160a01b0319169055600282018054859190614ff0906143909061472b565b55805461ffff191660031790550155600080516020615eee833981519152600080a26001600080516020615f4e83398151915255565b63ffffffff60075460801c16908852600160205263ffffffff615053600360408b2001928284541661489c565b1663ffffffff1982541617905538614f6e565b63ffffffff60075460a01c16908852600160205263ffffffff615093600360408b2001928284541661489c565b1663ffffffff1982541617905538614f44565b0135905038806105af565b8382526020822091601f198416815b8181106150fd57509084600195949392106150e3575b505050811b019055614bbf565b0135600019600384901b60f8161c191690553880806150d6565b919360206001819287870135815501950192016150c0565b60405162461bcd60e51b8152602060048201526015602482015274706c656173652067697665206d6f72652074696d6560581b6044820152606490fd5b60405162461bcd60e51b815260206004820152600b60248201526a6e6f742070656e64696e6760a81b6044820152606490fd5b3d156151b0573d90615196826145e6565b916151a460405193846145c3565b82523d6000602084013e565b606090565b156151bc57565b60405162461bcd60e51b815260206004820152600f60248201526e1dda5d1a191c985dc819985a5b1959608a1b6044820152606490fd5b81156151fd570490565b634e487b7160e01b600052601260045260246000fd5b1561521a57565b60405162461bcd60e51b81526020600482015260116024820152701c995c5d595cdd081b9bdd08199bdd5b99607a1b6044820152606490fd5b908060209392818452848401376000828201840152601f01601f1916010190565b9384600052600460205260406000209385600052600260205260406000209260018060a01b0360028701541633036107dc57600384019485549660ff881660048110156106aa576002036107ed57600b019660ff808954169160081c16116154de5760018501546152ef906001600160a01b03161515614809565b83156107cb5780156107ba5760028501916001600160401b0382116107325761531c82610600855461472b565b600090601f831160011461547a5761533e9291600091836150a6575050614acb565b90555b835460ff191660011784556001600160401b0382116107325761536882610600855461472b565b600090601f8311600114615411578260ff9593869593615390936000926150a6575050614acb565b90555b5460081c16915416106153c95733907fd91178918ec22e991ec5103aaa21661df1d5ddfeee4571007ad649225c0dad28600080a3565b80600052600460205260ff600b6040600020015460201c16156103db578060005260046020523360018060a01b0360016040600020015460081c160361165157614e14615c7f565b8382526020822091601f198416815b818110615462575092600192859260ff989689989610615448575b505050811b019055615393565b0135600019600384901b60f8161c1916905538808061543b565b91936020600181928787013581550195019201615420565b8382526020822091601f198416815b8181106154c657509084600195949392106154ac575b505050811b019055615341565b0135600019600384901b60f8161c1916905538808061549f565b91936020600181928787013581550195019201615489565b5050505050505080600052600460205260ff600b6040600020015460201c16156103db578060005260046020523360018060a01b0360016040600020015460081c160361165157614e14615c7f565b600052600460205260406000209063ffffffff6006830154166005830154906001810180911161224f57600b6155aa63ffffffff61558b61558661558061557860ff97600199614ab8565b865490614ab8565b97615d67565b614884565b1663ffffffff6133cb615586878060a01b03888b015460081c16615d67565b940154160160ff811161224f576146539260ff6155c8921690614ab8565b906151f3565b9160ff166001810180911161224f576155866155fe6155f56156049363ffffffff95614ab8565b600b5490614ab8565b93615d67565b166001830180931161224f57614653926155c891614ab8565b6001600160401b03908116610e10029081169190820361224f57565b90816000526004602052604060002082600052600660205260406000209160ff60038401541660028110156106aa576001036159005760018301546001600160a01b031633036158ef576002820180549093906001600160a01b031615610ec0576002015442116158e157156158ad578154600191906001600160a01b03161561585f576156d06009820154600583015490614845565b828060a01b038383015460081c1660005260036020526156f66040600020918254614845565b9055600a810154828060a01b03845416600052600360205261571e6040600020918254614845565b9055600b8101805462ffff00191690555b01805460ff1916600617815561574483615dad565b33600052600160205260ff60036040600020015460281c166157da575b5460081c6001600160a01b03166000908152600160205260409020600201805461578a906148b6565b9055546001600160a01b0316806157b8575b50600080516020615ece833981519152602060405160018152a2565b600052600160205260026040600020016157d281546148b6565b90553861579c565b33600052600160205263ffffffff6003604060002001541663ffffffff60075460401c1680911060001461582a5750336000526001602052600360406000200163ffffffff198154169055615761565b33600052600160205263ffffffff61584d60036040600020019282845416614ade565b1663ffffffff19825416179055615761565b6158726009820154600583015490614845565b828060a01b038383015460081c1660005260036020526158986040600020918254614845565b9055600b8101805462ff00001916905561572f565b600191506158ba83615dad565b01600360ff19825416179055600080516020615ece833981519152602060405160008152a2565b50600191506158ba83615dad565b6389f5ad6160e01b60005260046000fd5b6380cdb75d60e01b60005260046000fd5b80600052600460205260406000206001810180549160ff831660078110156106aa576003036107ed5760078101548015615c78574210615c72576002810180549093600b92916001600160a01b0316151580615c65575b15615c1b57506159df6159d4600a83015460646159a38161599463ffffffff60085460601c1685614ab8565b049263ffffffff6133cb615ce5565b049060018060a01b0388541660005260036020526159c76040600020918254614845565b9055600984015490614845565b600583015490614845565b60018060a01b03845460081c166000526003602052615a046040600020918254614845565b905501805462ffff00191690555b81546001600160a01b031660008181526001602052604090206003015460281c60ff16615b8e575b50805460081c6001600160a01b031660008181526001602052604090206003015460281c60ff16615af8575b50805460ff19166006179081905560081c6001600160a01b031660009081526001602052604090206002018054615a9c906148b6565b9055546001600160a01b031680615ad6575b507f69c3ad79d0e13d549ed2cf8009be68e25ffa6a38699d0e1983d13a7e3a77e1c6600080a2565b60005260016020526002604060002001615af081546148b6565b905538615aae565b80600052600160205263ffffffff600360406000200154169063ffffffff60075460c01c16809210600014615b5a575050805460081c6001600160a01b03166000908152600160205260409020600301805463ffffffff191690555b38615a66565b600052600160205263ffffffff615b7c60036040600020019282845416614ade565b1663ffffffff19825416179055615b54565b80600052600160205263ffffffff600360406000200154169060075460e01c809210600014615be757505081546001600160a01b03166000908152600160205260409020600301805463ffffffff191690555b38615a3a565b600052600160205263ffffffff615c0960036040600020019282845416614ade565b1663ffffffff19825416179055615be1565b615c2e6009830154600584015490614845565b9060018060a01b039060081c166000526003602052615c536040600020918254614845565b905501805462ffff0019169055615a12565b50600a8201541515615968565b50505050565b5050505050565b6002600080516020615f4e8339815191525414615caa576002600080516020615f4e83398151915255565b633ee5aeb560e01b60005260046000fd5b60ff600080516020615f2e8339815191525416615cd457565b63d93c066560e01b60005260046000fd5b63ffffffff60085460601c1660640363ffffffff811161224f5790565b6001600160a01b031615615d1257565b60405162461bcd60e51b815260206004820152602760248201527f416363657373436f6e74726f6c3a207a65726f2061646472657373206e6f7420604482015266185b1b1bddd95960ca1b6064820152608490fd5b6001600160a01b031660008181526001602052604090206003015460281c60ff1615615da757600052600160205263ffffffff6003604060002001541690565b50600090565b600090815260066020526040812080546001600160a01b0319908116825560018201805490911690556002810182905560038101805460ff191690556004018054615dfb906143909061472b565b55565b60ff600080516020615f6e8339815191525460401c1615615e1b57565b631afcd79f60e31b60005260046000fd5b90615e525750805115615e4157602081519101fd5b63d6bda27560e01b60005260046000fd5b81511580615e84575b615e63575090565b639996b31560e01b60009081526001600160a01b0391909116600452602490fd5b50803b15615e5b56fef0ff3a2576ed61e3bbdd7d3ec0872b1323d101c24d3f436b0afbea6b86e19344c2e5d5da58bd71d1a2d14cdef02a4256d971b728088f8190d067ccfbae3bd73ee6feb829ca22f71351fde252248cd3ef23ed5fc6bb27c8f2574395613d1219803e9d27a1c2a828db29e4b2a17fbd1bc70201ef21aec4f74b9fa051b02e38e3f0360894a13ba1a3210667c828492db98dca3e2076cc3735a920a3ca505d382bbccd5ed15c6e187e77e9aee88184c21f4f2182ab5827cb3b7e07fbedcd63f033009b779b17422d0df92223018b32b4d1fa46e071723d6817e2486d003becc55f00f0c57e16840df040f15088dc2f81fe391c3923bec73e23a9662efc9c229c6a009dda774dc9cd26aa151d38f0382b90219cad43a5beafe7761bf9ace382799cb3a2646970667358221220964acb26bba8a9261f8e2772fbfb806a88d1d1feb8177540a03019cf25eeee1c64736f6c634300081c0033",
  "linkReferences": {},
  "deployedLinkReferences": {}
}